:030000000216F0F5
:0C16F000787FE4F6D8FD75816F02173793
:10177C0041542B43574D4F44455F4445463D320D34
:10178C000A0041542B43575341505F4445463D2278
:10179C005A5F45535038323636222C227A77637A88
:1017AC0077637A7763222C31312C330D0A00415444
:1017BC002B43495041503D223139322E3136382E8F
:1017CC00342E31220D0A0041542B4349504D5558AB
:1017DC003D310D0A0041542B434950534552564557
:0B17EC00523D312C383038300D0A001F
:1019BC0014090000000000000000000000000000FE
:0919CC0000000000000001080009
:0619F4008B428A43894486
:1019FA00E4F545AB42AA43A94485458275830012A2
:101A0A000E0EFF6016121B4E7F03EFD394007480F4
:0E1A1A00948040031F80F3054580D8021AD83F
:0E1B4E00C2ACC2998F993099FDC299D2AC22D7
:1017F700758920759850758DFD858D8BE4F587C2A9
:10180700AFC2ACD28E7BFF7A17797C1219F47F6452
:101817007E00121A57B2A77BFF7A17798E1219F436
:101827007F647E00121A57B2A77BFF7A1779BA1224
:1018370019F47F647E00121A57B2A77BFF7A1779D3
:10184700D31219F47F647E00121A57B2A77BFF7A6E
:101857001779E11219F47F647E00121A57B2A7D2E2
:06186700A7D2AFD2AC22B3
:10186D0074656D7065726174757265206973203A67
:10187D00252E33660D0A0041542B43495053454ED6
:10188D00443D302C25640D0A0025730D0A0000001F
:10189D00000000000000000000000000000000003B
:0C18AD000000000000000000000000002F
:0A19D500016A01016B0002680000C6
:10149C00E4F52278237C00FD7BFF7A18799BFE7F94
:1014AC001E120DCFE4F54175907F1217F7D2AC12D6
:1014BC0018B912138BAF6A121587121648E508601B
:1014CC00EEE4F508E509B42BE6E50AB449E1E50BD1
:1014DC00B450DCE50CB444D7E51224CF70030215EC
:1014EC007E14606814700302157524DF70C1D2AFCE
:1014FC00C2ACD2997545FF75461875476D856F4B13
:10150C00856E4A856D49856C487B007A007923127B
:10151C000F787B007A007923121B15EF2402F54615
:10152C00E43EF5457BFF7A187984120F7E121AD8A7
:10153C007545007546007547237BFF7A187996121E
:10154C000F7E121AD8C299D2AC0214BBE513643DBB
:10155C0060030214BBE51475F00AA4251524F0F5FC
:10156C0022755E00F55F0214BB756A03E4F56B022D
:0B157C0014BB756A01E4F56B0214BBA0
:0300230002193F80
:0B193F00C0E0C0D075D000C000C007A1
:10194A00309828C29874092569F8A6990569E56945
:10195A0070020568FF2408F8E6B40A0F75080174D6
:0B196A00092FF8760075680075690011
:09197500D007D000D0D0D0E03240
:10164800E56A6401701AAF6FAE6EAD6DAC6C1209CD
:1016580044D3EF955FEE955E4004C2A78002D2A7FF
:10166800AF90EF64777007E56B7003756A01AF9010
:10167800EF647B701EAF90EF647B700575907F8080
:10168800F4056BE56B64027007756A01F56B8003FE
:10169800756A02E56A6402703DAF90EF24826017B4
:1016A800047033055FE55F7002055EAF90EF647DFF
:1016B800702475907F80F4D3E55F9400E55E940014
:1016C8004008E55F155F7002155EAF90EF647E70AD
:1016D8000575907F80F4AF90EF647D7007E56B70BF
:0816E80003756A0375907F226F
:101B2A00D3EF9400EE9400400800EF1F70F21E807D
:021B3A00EF2298
:101AD8007FDDEFD394007480948040127ECFEED3E4
:0E1AE80094007480948040031E80F31F80E4FD
:011AF60022CD
:101A28007F0DEFD394007480948040217EF7EED32D
:101A380094007480948040127D8EEDD3940074805D
:0E1A4800948040031D80F31E80E41F80D500B3
:011A5600226D
:101A5700D3EF9400EE940040257D66EDD394007497
:101A670080948040127C03ECD3940074809480406F
:0E1A7700031C80F31D80E4EF1F70D51E80D28B
:011A8500223E
:101B3C003F065B4F666D7D077F6F777C395E7971F1
:021B4C006380B4
:0E19DF0008603963000000000000025E002D69
:10138B00E4FFFE7D7A7C44AB6FAA6EA96DA86C124C
:10139B000800120944AB07AA06E4F5677C277D1009
:1013AB00120E4D743C2FF582741B3EF583E493F5BE
:1013BB00667C277D10AF03AE02120E4D7E037FE8D5
:1013CB00CFCDCFCECCCE120E4D743C2FF582741BED
:1013DB003EF583E493F5657C277D10AF03AE0212D7
:1013EB000E4D7E037FE8CFCDCFCECCCE120E4D7EF1
:1013FB00007F64CFCDCFCECCCE120E4D743C2FF5EB
:10140B0082741B3EF583E493F5647C277D10AF0358
:10141B00AE02120E4D7E037FE8CFCDCFCECCCE12D7
:10142B000E4D7E007F64CFCDCFCECCCE120E4D7E37
:10143B00007F0ACFCDCFCECCCE120E4D743C2FF504
:10144B0082741B3EF583E493F563AE02AF037C27F6
:10145B007D10120E4D7E037FE8CFCDCFCECCCE12BA
:10146B000E4D7E007F64CFCDCFCECCCE120E4D7EF7
:10147B00007F0ACFCDCFCECCCE120E4D743C2DF5C6
:10148B0082741B3CF583E493F56274802565F565E6
:01149B00222E
:021587008F4291
:10158900855F44E4F543AF437E00C3EF940874805C
:1015990094804003021647E543B40800504D901566
:1015A900AEF82828730215C60215CA0215D202150B
:1015B900D60215DE0215E20215EA0215EEC2A28074
:1015C90002D2A2C2A3C2A48022C2A28002D2A2D203
:1015D900A3C2A48016C2A28002D2A2C2A3D2A480AE
:1015E9000AC2A28002D2A2D2A3D2A4E54224FE60FA
:1015F9000914603424027037800BC3EF9402EE643F
:10160900809480500A74602543F8E6F5808020E5CF
:101619004475F00A84E5F0901B3C93F580E5447528
:10162900F00A84F544700822901B4DE493F5807FFD
:0E163900147E00121B2AE4F580054302158F73
:011647002280
:0619ED00046C0000000084
:101AF700D3EF9400EE940040147D6E7C00ED1D70D2
:0D1B0700011CED4C70F7EF1F70E61E80E32F
:011B140022AE
:101A8600C2B77F467E00EF1FAC0670011E4C70F693
:101A9600D2B7FEFF30B7110FBF00010ED3EF948807
:0A1AA600EE941340EF7F00227F0151
:011AB0002213
:0C18FD00121A867F017E00121AF77FCCC1
:10190900E4FBFAC2B7054AE54A70020549EF1392AA
:10191900B7754900754A06E54A154AAC497002157A
:10192900494C70F3D2B7EFC313FF0BBB00010AEBAD
:0519390064084A70CEB5
:01193E002286
:10197E007D087C00C2B70FBF0000D2B70FBF0000BA
:10198E000FBF0000A2B7E433C43333335480FBE9F6
:10199E00C3134BF97E007F04EF1FAA0670011E4A87
:0D19AE0070F6ED1D70011CED4C70C9AF010D
:0119BB002209
:081B5C001218FD7F4402190973
:081B64001218FD7FBE021909F1
:1018B900E4F542FFFEF548F54775468075453D124A
:1018C9001B5C121B6412197E7543008F4412197E2A
:1018D900EFFEE5434206E544FFFDAC06EC12090BB9
:1018E900AB48AA47A946A8451208008F6F8E6E8D8E
:0318F9006D8C6C87
:0118FC0022C9
:10080000EC4D6011E8497017ED33EC3304600DE4F2
:10081000FCFFFEFD22E933E8330470F80209B01250
:10082000097B58046009E4CC248150062850090251
:1008300009BA2840030209B7C0E0EB4A7044B98006
:1008400006D0E0FB0209A6EF4E701CBD8008EBFF4E
:10085000EAFEE9FD80EBE98DF0A4FEE5F00208E98F
:10086000E9CDF9EAFEEBFFEF89F0A4FCE5F0CE89D3
:10087000F0A42EFFE435F0CD89F0A42DFEE435F090
:100880008067EF4E7005BD80D780C3EF8BF0A4ACBE
:10089000F0EE8BF0A42CFCE435F0F8EF8AF0A42CF9
:1008A000E5F038FCE433CB8DF0A42CFCE5F03BF80C
:1008B000EE8AF0A42CFCE5F038F8E433CF89F0A4FC
:1008C0002CFCE5F038CF3400CE89F0A42FFFE5F002
:1008D0003EFEE433C98DF0A42EFEE5F039CD8AF05A
:1008E000A42FFFE5F03EFEE43DFD33D0E0FB5007D2
:1008F0000BBB000F0209BAEC2CFCEF33FFEE33FE0A
:06090000ED33FD02099237
:1009060075F020800E75F010800575F0087D007E6C
:10091600007F003392D530D503120E83EC3340109E
:10092600EF33FFEE33FEED33FDEC33FCD5F0ED2275
:0E093600E5F0247EA2D513CC92E7CDCEFF22B1
:10094400EDD2E7CD33EC3392D524814006E4FFFEAB
:10095400FDFC22FCE4CFCECDCC24E0501174FF800A
:10096400EDC3CC13CCCD13CDCE13CECF13CF0470A7
:07097400F030D5DE020E8316
:100F1C00E5592445F8E60559227842300702784510
:100F2C00E475F001120E91020DF52000EB7F2ED22C
:100F3C00008018EF540F2490D43440D4FF30040BAD
:100F4C00EF24BFB41A0050032461FFE55A60021568
:100F5C005A055DE55D7002055C30070D7842E4755D
:100F6C00F001120E91EF020E3B021AB17403D2077C
:100F7C008003E4C207F5598B428A438944E4F55A4D
:100F8C00F55CF55DE55A60077F20120F5780F5750B
:100F9C005BFFC201C200C202C203C205C206C20884
:100FAC00120F25FF700D3007057F00120F68AF5D23
:100FBC00AE5C22B4255FC2D5C204120F25FF24D02B
:100FCC00B40A00501A75F00A785A30D50508B6FFE5
:100FDC000106C6A426F620D5047002D20380D924BB
:100FEC00CFB41A00EF5004C2E5D204021255D2015C
:100FFC0080C6D20080C0D20280BCD2D580BAD205C5
:10100C0080B47F20120F572002077401B55A00409C
:10101C00F1120F1CFF120F57020F90D208D206804C
:10102C0095120F1CFB120F1CFA120F1CF94A4B7075
:10103C0006794C7A137BFF20022EE55A602A7E003B
:10104C008E82758300120E0E60060EEE655B70F0DC
:10105C00C2D5EBC0E0EAC0E0E9C0E0EE1212B5D0B8
:10106C00E0F9D0E0FAD0E0FB120DF5FF60AAEBC07E
:10107C00E0EAC0E0E9C0E0120F57D0E02401F9D05B
:10108C00E03400FAD0E0FBE55B0460DCD55BD98092
:10109C0087D20280A212129860F7E55B70010412ED
:1010AC0009C5A95B600DE55B600914F55B12133F84
:1010BC00EF60F3EA30E702F404C3995077EAF425C1
:1010CC005B0430E701E404F55B800D12129860C1FB
:1010DC00EA055B255B1209C5EA7858F630E701E4AE
:1010EC00255B04D55B04200501141212B5E4C0E0A5
:1010FC0012133F7858E6601320E70714F6120F3FDF
:10110C00802204F6D0E014C0E07F00120F3FE55BB4
:10111C006007120F36155B800B300503120F36D0AB
:10112C00E0020F90D0E00480C512129860A0E55B3D
:10113C00041209C57858EAF6E55B20050260010443
:05114C0024041212B59D
:1011510074FF04C0E012133F120F3FE55B2005024C
:101161006003120F36D0E0B55BE87F45120F497876
:1011710058E67F2B30E7047F2DF404C0E0120F57AF
:10118100D0E075F00A84C0F0120F40D0E0120F4099
:10119100020F90791080027908C206C2088008D235
:1011A100D5790A8004790AC2D5E55B047002F55B42
:1011B100E4FAFDFEFF120F1CFC7B08200113120F45
:1011C1001CFD7B1030000A120F1CFE120F1CFF7B4E
:1011D10020EC3382D592D55013C3E43000069FFF33
:1011E100E49EFEE42001039DFDE49CFCE4CBF8C2F7
:1011F10001EC700CCFCECDCCE824F8F870F3801759
:10120100C3EF33FFEE33FEED33FDEC33FCEB33FB89
:10121100994002FB0FD8E9EB300105F8D0E0C44852
:10122100B201C0E00AEC4D4E4F78207B0070C2EA5B
:10123100B55B0040BCC0E01212B7D0F0D0E0200195
:1012410004C4C0E0C4B201C0F0120F40D0F0D5F028
:10125100EB020F90120EA1102D531194580FFE4C5A
:101261000FFA4211984F11A04411A04910134311D4
:10127100A65510D74611354510A147136C501002E1
:101281002D10062E10292B100A2310272013552A62
:101291000FC24800001021E55BB4FF03755B061225
:1012A1000F1CFC120F1CFD120F1CFE120F1CFF78ED
:1012B100510209F4790AA2D5200314300509B910A5
:1012C100020404B9080104A2D52006025001042039
:1012D10002689202B55A005034C0E07F20300319F1
:1012E1007F30A20272067205500F12130EC202C2A3
:1012F10006C205C2087F30800F300503E9C0E01245
:101301000F57300503D0E0F9D0E0B55ACC300517BE
:101311007F30B9100C120F577F583004077F788047
:1013210003B90803120F573002057F2D020F577FB3
:10133100202008F87F2B2006F322920280CF7F0025
:10134100B4070050052451F8E6FF22286E756C6C35
:101351002900D201120F1C3001F8C201785A30D590
:101361000108F6020FC22D50434958120F1C2403E5
:10137100B405004001E490136793120F48743A12C8
:0A1381000F48D203755A04021194BC
:10097B00E9D2E7C933E833F892D5EDD2E7CD33ECC2
:07098B0033FC5002B2D5223B
:10099200EC30E7100FBF000C0EBE00080DBD0004C6
:1009A2000BEB6014A2D5EB13FCED92E7FD2274FF72
:1009B200FCFDFEFF22E480F8A2D574FF13FC7D80CB
:0309C200E480EFDF
:1009C500F920E72824F950037907E4F42402FB18F9
:1009D500DBFDE624FB5014E9600DE4F618E604F6A9
:0F09E500B40A08E4F6D9F57401F60A22C2D52245
:1009F400ED33EC3392D5FA602AB4FF33EDC2E77BD2
:100A0400FF60067A0A7919E4227A0A792220D50449
:100A14007A0A791D224E614E002B494E46002D491B
:100A24004E4600E47A08F608DAFC7B00740722E8F4
:100A3400C0E0ECC0E0EDC0E0EEC0E0EFC0E0EA757D
:100A4400F010A4CAABF075F04DA42BFBE435F0FC18
:100A5400EA2410FAEB34C5FBEC34D9FCEDC2E7FF11
:100A640075F056A4F42411C5F0F434C58FF0A42A0B
:100A7400E5F03BE43CF620E714120CBFD0E0FFD0D5
:100A8400E0FED0E0FDD0E0FC120BF28014F404127E
:100A94000CBFD0E0FFD0E0FED0E0FDD0E0FC1208B7
:100AA40000D0E0F8E6FAEDD2E7CD33EC332482FB54
:100AB400E4C3CF33CFCE33CECD33CD33DBF37B079B
:100AC40075F00A846004F6081B0AE5F0F6088FF056
:100AD400740AA4FFACF08EF0740AA42CFEACF0509F
:100AE400010C8DF0740AA42CFDE435F0F608DBDE6D
:030AF40074072262
:100AF7000209B0E86480F8E933E83360110460F074
:100B0700ED33EC337009E8FCE9FDEAFEEBFF220464
:100B170060DED3EB9FEA9EE99DE8C2E78CF0C2F75F
:100B270095F0400CE8CCF8E9CDF9EACEFAEBCFFB2B
:100B370012097B85D0F05804700320D5B3E8047000
:100B4700075002B2D50209BA92D5EC0460F7E4CC9B
:100B5700C0E0C398F8603B94186008400DD0E0FBF4
:100B6700020992E4FBFAC9FC8028E830E406E4C9EC
:100B7700FBE4CAFCE830E305E4C9CACBFCE8540748
:100B87006010F8C3E913F9EA13FAEB13FBEC13FC53
:100B9700D8F130F52FC3E49CFCEF9BFFEE9AFEEDF6
:100BA70099FDD0E0FBEF4E4D4C701222DB0302099A
:100BB700B7EC2CFCEF33FFEE33FEED33FDED30E702
:100BC700EB020992EF2BFFEE3AFEED39FDD0E0FB89
:100BD70050130BBB00030209BAED13FDEE13FEEF32
:080BE70013FFEC13FC0209925C
:100BEF000209BAEC5D046005E8590470030209B00C
:100BFF0012097B580460F6EC4860F2EC7004FDFEBD
:100C0F00FF22C860DB2481C85009C39860025006D8
:100C1F000209B79850CAF582E9294B4A7005AB8291
:100C2F000209A675F0007C1A7880C3EF9BEE9AED4F
:100C3F0099400DC3EF9BFFEE9AFEED99FDE842F050
:100C4F00DC23ACF0D0E0FFD0E0FED0E0FDAB8220A3
:100C5F00E7101BEB60BAEC2CFCEF33FFEE33FEED2D
:100C6F0033FD020992E803F830E705C0F075F00094
:100C7F00EF2FFFEE33FEED33FD40B830E7C280AA11
:100C8F003F8000004120000042C80000447A00006D
:100C9F00461C400047C35000497424004B189680EF
:100CAF004CBEBC205A0E1BCA6753C21C749DC5AEE6
:100CBF00FB60065407601C2323120CEDEB543860C5
:100CCF0009120CD9120CE8120800ECF8EDF9EEFA43
:100CDF00EFCB22EB120CE880F1543803241C900C5C
:100CEF008FFE93FC0EEE93FD0EEE930ECE93FF222E
:1016FC0002149CE493A3F8E493A34003F68001F254
:10170C0008DFF48029E493A3F85407240CC8C333EE
:10171C00C4540F4420C8834004F456800146F6DFBD
:10172C00E4800B01020408102040809019BCE47E78
:10173C00019360BCA3FF543F30E509541FFEE493B2
:10174C00A360010ECF54C025E060A840B8E493A379
:10175C00FAE493A3F8E493A3C8C582C8CAC583CAA4
:10176C00F0A3C8C582C8CAC583CADFE9DEE780BE5C
:0119F30000F3
:100CFF00E709F608DFFA8046E709F208DFFA803ED7
:100D0F0088828C83E709F0A3DFFA8032E309F608C3
:100D1F00DFFA8078E309F208DFFA807088828C832B
:100D2F00E309F0A3DFFA806489828A83E0A3F608DF
:100D3F00DFFA805889828A83E0A3F208DFFA804CB9
:100D4F0080D280FA80C680D4806980F28033801090
:100D5F0080A680EA809A80A880DA80E280CA8033F9
:100D6F0089828A83ECFAE493A3C8C582C8CCC58371
:100D7F00CCF0A3C8C582C8CCC583CCDFE9DEE78041
:100D8F000D89828A83E493A3F608DFF9ECFAA9F0C0
:100D9F00EDFB2289828A83ECFAE0A3C8C582C8CC16
:100DAF00C583CCF0A3C8C582C8CCC583CCDFEADE2F
:100DBF00E880DB89828A83E493A3F208DFF980CC91
:100DCF0088F0EF60010E4E60C388F0ED2402B4048A
:100DDF000050B9F582EB2402B4040050AF23234531
:060DEF008223900D4F73FA
:100DF500BB010689828A83E0225002E722BBFE02FC
:090E0500E32289828A83E493222E
:100E0E00BB010CE58229F582E5833AF583E0225099
:100E1E0006E92582F8E622BBFE06E92582F8E222E3
:0D0E2E00E58229F582E5833AF583E49322FD
:100E3B00BB010689828A83F0225002F722BBFE0196
:020E4B00F32290
:100E4D00C2D5EC30E709B2D5E4C39DFDE49CFCEEC0
:100E5D0030E715B2D5E4C39FFFE49EFE120EC7C363
:100E6D00E49DFDE49CFC8003120EC730D507C3E45E
:060E7D009FFFE49EFE222F
:0E0E8300C3E49FFFE49EFEE49DFDE49CFC2280
:100E9100FAE6FB0808E6F925F0F618E6CA3AF62262
:100EA100D083D082F8E4937012740193700DA3A3E0
:100EB10093F8740193F5828883E4737402936860F4
:060EC100EFA3A3A380DFF4
:101AB100EFB40A07740D121ABC740A309811A89970
:101AC100B8130CC2983098FDA899C298B811F63095
:071AD10099FDC299F599226D
:101B1500E4FFFE120DF5600C0FEF70010E09E97080
:051B2500F20A80EF222E
:100EC700BC000BBE0029EF8DF084FFADF022E4CC0F
:100ED700F875F008EF2FFFEE33FEEC33FCEE9DECD8
:100EE700984005FCEE9DFE0FD5F0E9E4CEFD22ED1E
:100EF700F8F5F0EE8420D21CFEADF075F008EF2F68
:100F0700FFED33FD4007985006D5F0F222C398FD58
:050F17000FD5F0EA22F5
:00000001FF
